:020000040800F2
:1000000000200020BD0600080107000801070008C5
:1000100001070008010700080107000800000000B0
:1000200000000000000000000000000001070008C0
:100030000107000800000000010700080107000890
:100040000107000801070008010700080107000870
:100050000107000801070008010700080107000860
:100060000107000801070008010700080107000850
:100070000107000801070008010700080107000840
:100080000107000801070008010700080000000040
:100090000000000000000000000000000107000850
:1000A0000107000801070008010700080107000810
:1000B0000107000801070008010700080107000800
:1000C00001070008010700080107000801070008F0
:1000D00001070008010700080107000801070008E0
:1000E00001070008010700080107000800000000E0
:1000F0000000000000000000000000000000000000
:1001000000000000000000000000000000000000EF
:1001100000000000000000000107000801070008BF
:1001200000000000000000000000000000000000CF
:1001300000000000000000000000000000000000BF
:1001400000000000000000000000000000000000AF
:10015000000000000000000000000000000000009F
:10016000000000000000000000000000000000008F
:10017000000000000000000000000000000000007F
:10018000000000000000000000000000000000006F
:10019000000000000000000000000000000000005F
:1001A000000000000000000000000000000000004F
:1001B000000000000000000000000000000000003F
:1001C0000000000000000000000000005FF808F1DF
:1001D00080B489B000AF786039600023FB610023F0
:1001E0003B610023BB610023FB6000237B61002394
:1001F000BB603B68DB7803F00F03FB613B68DB7897
:1002000003F01003002B04D03B689B78FA6913437A
:10021000FB613B681B88DBB2002B44D07B681B680A
:100220007B610023BB6138E0BB69012202FA03F362
:10023000FB603B681B881A46FB6813403B613A69C8
:10024000FB689A4226D1BB699B00FB60FB680F22CA
:1002500002FA03F3BB60BB68DB437A6913407B613E
:10026000FB68FA6902FA03F37A6913437B613B681E
:10027000DB78282B05D1BB6901229A407B685A6143
:1002800008E03B68DB78482B04D1BB6901229A4027
:100290007B681A61BB690133BB61BB69072BC3D99A
:1002A0007B687A691A603B681B88FF2B46D97B689C
:1002B0005B687B610023BB613AE0BB6908330122C4
:1002C00002FA03F3FB603B681B881A46FB68134085
:1002D0003B613A69FB689A4227D1BB699B00FB608E
:1002E000FB680F2202FA03F3BB60BB68DB437A6949
:1002F00013407B61FB68FA6902FA03F37A691343DE
:100300007B613B68DB78282B05D1BB690833012270
:100310009A407B685A613B68DB78482B05D1BB6902
:10032000083301229A407B681A61BB690133BB61C3
:10033000BB69072BC1D97B687A695A602437BD46EF
:100340005DF8047B704700BF80B483B000AF786075
:100350000B46FB70FB78002B0CD04FF48053C4F29B
:1003600002034FF48052C4F2020291697A680A4390
:100370009A610CE04FF48053C4F202034FF48052B0
:10038000C4F2020291697A68D2430A409A610C373A
:10039000BD465DF8047B704780B400AF4FF48053D6
:1003A000C4F202034FF48052C4F20202926942F492
:1003B00080329A614FF48043C4F2010317221A85F8
:1003C0004FF48043C4F2010308221A804FF48043A3
:1003D000C4F2010301229A82BD465DF8047B704796
:1003E00080B483B000AF78604FF48043C4F201035F
:1003F0007A6892B29A854FF48043C4F201034FF4B5
:100400008042C4F20102128892B242F0010292B21A
:100410001A8000BF4FF48043C4F201031B889BB2D3
:1004200003F00103002BF5D10C37BD465DF8047BCA
:10043000704700BF80B582B000AF786003E04FF432
:100440007A70FFF7CDFF7B685A1E7A60002BF6D1D9
:100450000837BD4680BD00BF80B582B000AF082020
:100460000121FFF771FF4FF42043BB801023FB7184
:100470000323BB713B1D4FF44060C4F201001946D9
:10048000FFF7A6FE4FF48043BB802823FB713B1D82
:100490004FF44060C4F201001946FFF799FE4FF493
:1004A0008053BB801023FB713B1D4FF44060C4F2AE
:1004B00001001946FFF78CFE2023BB804823FB7107
:1004C0003B1D4FF44060C4F201001946FFF780FE67
:1004D0004023BB801023FB713B1D4FF44060C4F2EE
:1004E00001001946FFF774FE4FF44063C4F20103A4
:1004F0004FF480521A614FF44063C4F201034FF08D
:1005000000521A614FF44063C4F201034FF00042FD
:100510001A610837BD4680BD80B400AF00BF00BF80
:1005200000BF00BF00BFBD465DF8047B704700BF41
:1005300080B584B000AF0346FB804FF44063C4F243
:1005400001034FF080521A611023FB6028E0FA8803
:10055000FB6842FA03F303F00103002B07D04FF4CA
:100560004063C4F201034FF400421A6106E04FF405
:100570004063C4F201034FF000421A614FF440633C
:10058000C4F201034FF000521A61FFF7C5FF4FF4A8
:100590004063C4F201034FF400521A61FFF7BCFF3D
:1005A000FB685A1EFA60002BD1DC4FF44063C4F2A2
:1005B00001034FF000521A614FF44063C4F201038B
:1005C0004FF480521A611037BD4680BD80B500AF30
:1005D00048F2D700FFF7ACFF48F20820FFF7A8FF6A
:1005E0004AF22060FFF7A4FF4CF22360FFF7A0FF60
:1005F00049F2A040FFF79CFF4CF2AC20FFF798FFB8
:100600004CF68320FFF794FF4CF6D460FFF790FF81
:100610004CF28340FFF78CFF49F62000FFF788FF7C
:100620004CF65740FFF784FF4FF46040FFF780FF20
:100630004FF44840FFF77CFF4CF28000FFF778FF53
:1006400080BD00BF80B500AF4FF44063C4F201032A
:100650004FF480021A616420FFF7ECFE4FF4406310
:10066000C4F2010340221A6180BD00BF80B500AF13
:10067000FFF792FEFFF7F0FEFFF7E4FFC820FFF759
:10068000D9FEFFF7A3FF0020FFF752FF4BF6AA00A9
:10069000FFF74EFF4BF6AA00FFF74AFF48F238205B
:1006A000FFF746FF0120FFF7C5FE48F20820FFF7DD
:1006B0003FFF0120FFF7BEFEE5E700BF002103E09A
:1006C0000A4B5B584350043109480A4B42189A427E
:1006D000F6D3094A02E0002342F8043B074B9A4252
:1006E000F9D300F00FF8FFF7C1FF704718090008B1
:1006F000000000200000002000000020000000207A
:10070000FEE7000080B500AF4FF48053C4F202034F
:100710004FF48052C4F20202126842F001021A60E1
:100720004FF48052C4F202024FF48053C4F2020329
:1007300059680023CFF6FF030B4053604FF48053FA
:10074000C4F202034FF48052C4F20202126822F093
:10075000847222F480321A604FF48053C4F2020390
:100760004FF48052C4F20202126822F480221A600E
:100770004FF48053C4F202034FF48052C4F20202D9
:10078000526822F4FE025A604FF48053C4F202030E
:100790004FF41F029A604FF48053C4F20203002208
:1007A000DA6200F009F84FF46D43CEF200034FF027
:1007B00000629A6080BD00BF80B500AF00F002F813
:1007C00080BD00BF80B483B000AF00237B600023F6
:1007D0003B604FF48053C4F202034FF48052C4F2E2
:1007E0000202126842F480321A604FF48053C4F25D
:1007F00002031B6803F400333B607B6801337B60BA
:100800003B68002B03D17B68B3F5A06FEDD14FF4AB
:100810008053C4F202031B6803F40033002B02D0A0
:1008200001233B6001E000233B603B68012B6DD15D
:100830004FF48053C4F202034FF48052C4F2020218
:1008400052685A604FF48053C4F202034FF480524E
:10085000C4F2020252685A604FF48053C4F2020399
:100860004FF48052C4F2020252685A604FF480532F
:10087000C4F202034FF48052C4F20202526822F41E
:100880007C125A604FF48053C4F202034FF480523A
:10089000C4F20202526842F498125A604FF4805334
:1008A000C4F202034FF48052C4F20202126842F012
:1008B00080721A6000BF4FF48053C4F202031B68B9
:1008C00003F00073002BF6D04FF48053C4F2020300
:1008D0004FF48052C4F20202526822F003025A60BE
:1008E0004FF48053C4F202034FF48052C4F2020268
:1008F000526842F002025A6000BF4FF48053C4F2C3
:1009000002035B6803F00C03082BF6D10C37BD46DD
:080910005DF8047B704700BF95
:04000005080006BD2C
:00000001FF
